{"abi":[{"type":"constructor","inputs":[{"name":"_nameWrapper","type":"address","internalType":"contract INameWrapper"}],"stateMutability":"nonpayable"},{"type":"function","name":"ETH_NODE","inputs":[],"outputs":[{"name":"","type":"bytes32","internalType":"bytes32"}],"stateMutability":"view"},{"type":"function","name":"REQUIRED_PREFIX","inputs":[],"outputs":[{"name":"","type":"string","internalType":"string"}],"stateMutability":"view"},{"type":"function","name":"addr","inputs":[{"name":"node","type":"bytes32","internalType":"bytes32"}],"outputs":[{"name":"","type":"address","internalType":"address payable"}],"stateMutability":"view"},{"type":"function","name":"nameWrapper","inputs":[],"outputs":[{"name":"","type":"address","internalType":"contract INameWrapper"}],"stateMutability":"view"},{"type":"function","name":"orgPartners","inputs":[{"name":"","type":"bytes32","internalType":"bytes32"}],"outputs":[{"name":"","type":"string","internalType":"string"}],"stateMutability":"view"},{"type":"function","name":"orgs","inputs":[{"name":"","type":"bytes32","internalType":"bytes32"}],"outputs":[{"name":"label","type":"string","internalType":"string"},{"name":"registered","type":"bool","internalType":"bool"}],"stateMutability":"view"},{"type":"function","name":"registerOrg","inputs":[{"name":"label","type":"string","internalType":"string"}],"outputs":[{"name":"orgNode","type":"bytes32","internalType":"bytes32"}],"stateMutability":"nonpayable"},{"type":"function","name":"registerUser","inputs":[{"name":"orgNode","type":"bytes32","internalType":"bytes32"},{"name":"userLabel","type":"string","internalType":"string"},{"name":"userAddr","type":"address","internalType":"address"},{"name":"role","type":"string","internalType":"string"},{"name":"namespaces","type":"string","internalType":"string"},{"name":"maxTag","type":"string","internalType":"string"},{"name":"expiry","type":"uint64","internalType":"uint64"}],"outputs":[{"name":"userNode","type":"bytes32","internalType":"bytes32"}],"stateMutability":"nonpayable"},{"type":"function","name":"resolve","inputs":[{"name":"name","type":"bytes","internalType":"bytes"},{"name":"data","type":"bytes","internalType":"bytes"}],"outputs":[{"name":"","type":"bytes","internalType":"bytes"}],"stateMutability":"view"},{"type":"function","name":"revokeUser","inputs":[{"name":"orgNode","type":"bytes32","internalType":"bytes32"},{"name":"userLabel","type":"string","internalType":"string"}],"outputs":[],"stateMutability":"nonpayable"},{"type":"function","name":"setPartners","inputs":[{"name":"orgNode","type":"bytes32","internalType":"bytes32"},{"name":"partnersCsv","type":"string","internalType":"string"}],"outputs":[],"stateMutability":"nonpayable"},{"type":"function","name":"setProofCommitment","inputs":[{"name":"orgNode","type":"bytes32","internalType":"bytes32"},{"name":"userLabel","type":"string","internalType":"string"},{"name":"commitment","type":"bytes32","internalType":"bytes32"}],"outputs":[],"stateMutability":"nonpayable"},{"type":"function","name":"supportsInterface","inputs":[{"name":"interfaceId","type":"bytes4","internalType":"bytes4"}],"outputs":[{"name":"","type":"bool","internalType":"bool"}],"stateMutability":"pure"},{"type":"function","name":"text","inputs":[{"name":"node","type":"bytes32","internalType":"bytes32"},{"name":"key","type":"string","internalType":"string"}],"outputs":[{"name":"","type":"string","internalType":"string"}],"stateMutability":"view"},{"type":"function","name":"updateUser","inputs":[{"name":"orgNode","type":"bytes32","internalType":"bytes32"},{"name":"userLabel","type":"string","internalType":"string"},{"name":"role","type":"string","internalType":"string"},{"name":"namespaces","type":"string","internalType":"string"},{"name":"maxTag","type":"string","internalType":"string"},{"name":"expiry","type":"uint64","internalType":"uint64"}],"outputs":[],"stateMutability":"nonpayable"},{"type":"function","name":"userByNode","inputs":[{"name":"","type":"bytes32","internalType":"bytes32"}],"outputs":[{"name":"orgNode","type":"bytes32","internalType":"bytes32"},{"name":"userLabelHash","type":"bytes32","internalType":"bytes32"}],"stateMutability":"view"},{"type":"function","name":"userLabels","inputs":[{"name":"","type":"bytes32","internalType":"bytes32"},{"name":"","type":"bytes32","internalType":"bytes32"}],"outputs":[{"name":"","type":"string","internalType":"string"}],"stateMutability":"view"},{"type":"function","name":"users","inputs":[{"name":"","type":"bytes32","internalType":"bytes32"},{"name":"","type":"bytes32","internalType":"bytes32"}],"outputs":[{"name":"userAddr","type":"address","internalType":"address"},{"name":"role","type":"string","internalType":"string"},{"name":"namespaces","type":"string","internalType":"string"},{"name":"maxTag","type":"string","internalType":"string"},{"name":"expiry","type":"uint64","internalType":"uint64"},{"name":"revoked","type":"bool","internalType":"bool"},{"name":"exists","type":"bool","internalType":"bool"},{"name":"proofCommitment","type":"bytes32","internalType":"bytes32"}],"stateMutability":"view"},{"type":"event","name":"AddrChanged","inputs":[{"name":"node","type":"bytes32","indexed":true,"internalType":"bytes32"},{"name":"a","type":"address","indexed":false,"internalType":"address"}],"anonymous":false},{"type":"event","name":"OrgRegistered","inputs":[{"name":"orgNode","type":"bytes32","indexed":true,"internalType":"bytes32"},{"name":"admin","type":"address","indexed":true,"internalType":"address"},{"name":"label","type":"string","indexed":false,"internalType":"string"}],"anonymous":false},{"type":"event","name":"PartnersSet","inputs":[{"name":"orgNode","type":"bytes32","indexed":true,"internalType":"bytes32"},{"name":"partnersCsv","type":"string","indexed":false,"internalType":"string"}],"anonymous":false},{"type":"event","name":"ProofCommitmentSet","inputs":[{"name":"orgNode","type":"bytes32","indexed":true,"internalType":"bytes32"},{"name":"userLabel","type":"string","indexed":false,"internalType":"string"},{"name":"commitment","type":"bytes32","indexed":false,"internalType":"bytes32"}],"anonymous":false},{"type":"event","name":"TextChanged","inputs":[{"name":"node","type":"bytes32","indexed":true,"internalType":"bytes32"},{"name":"indexedKey","type":"string","indexed":true,"internalType":"string"},{"name":"key","type":"string","indexed":false,"internalType":"string"},{"name":"value","type":"string","indexed":false,"internalType":"string"}],"anonymous":false},{"type":"event","name":"UserRegistered","inputs":[{"name":"orgNode","type":"bytes32","indexed":true,"internalType":"bytes32"},{"name":"userLabel","type":"string","indexed":false,"internalType":"string"},{"name":"userAddr","type":"address","indexed":false,"internalType":"address"}],"anonymous":false},{"type":"event","name":"UserRevoked","inputs":[{"name":"orgNode","type":"bytes32","indexed":true,"internalType":"bytes32"},{"name":"userLabel","type":"string","indexed":false,"internalType":"string"}],"anonymous":false},{"type":"event","name":"UserUpdated","inputs":[{"name":"orgNode","type":"bytes32","indexed":true,"internalType":"bytes32"},{"name":"userLabel","type":"string","indexed":false,"internalType":"string"}],"anonymous":false},{"type":"error","name":"LabelMissingPrefix","inputs":[]},{"type":"error","name":"NotOrgAdmin","inputs":[]},{"type":"error","name":"NotUser","inputs":[]},{"type":"error","name":"OrgAlreadyRegistered","inputs":[]},{"type":"error","name":"OrgNotRegistered","inputs":[]},{"type":"error","name":"UnsupportedSelector","inputs":[]},{"type":"error","name":"UserAlreadyExists","inputs":[]},{"type":"error","name":"UserMissing","inputs":[]},{"type":"error","name":"WrapperNotApproved","inputs":[]}],"bytecode":{"object":"0x60a0346100a257601f6127fd38819003918201601f19168301916001600160401b038311848410176100a7578084926020946040528339810103126100a257516001600160a01b03811681036100a25760805260405161273f90816100be82396080518181816106a0015281816107f6015281816108e001528181610b4701528181611179015281816114df015281816115c101528181611a220152611da60152f35b600080fd5b634e487b7160e01b600052604160045260246000fdfe60806040526004361015610013575b600080fd5b60003560e01c806301ffc9a71461017b57806307be6f9914610172578063158d0595146101695780633b3b57de1461016057806359d1d43c1461015757806378ce09981461014e5780639061b923146101455780639f8e3e0d1461013c578063a3e84beb14610133578063a8e5fbc01461012a578063baa9e41714610121578063bd35741914610118578063c2312b841461010f578063c7fb779414610106578063cc473be3146100fd578063cd544a7b146100f4578063d0aea43a146100eb5763d9ca69e4146100e357600080fd5b61000e610e2d565b5061000e610df2565b5061000e610dc5565b5061000e610d9b565b5061000e610d65565b5061000e610a8b565b5061000e610a6e565b5061000e61092d565b5061000e6108c9565b5061000e610868565b5061000e6107a2565b5061000e610746565b5061000e610640565b5061000e610611565b5061000e610599565b5061000e6104f3565b5061000e610401565b503461000e57602036600319011261000e5760043563ffffffff60e01b811680910361000e576020906301ffc9a760e01b81149081156101f1575b81156101e0575b81156101cf575b506040519015158152f35b631d9dabef60e11b149050386101c4565b631674750f60e21b811491506101bd565b639061b92360e01b811491506101b6565b90600182811c92168015610232575b602083101461021c57565b634e487b7160e01b600052602260045260246000fd5b91607f1691610211565b50634e487b7160e01b600052604160045260246000fd5b6001600160401b03811161026657604052565b61026e61023c565b604052565b604081019081106001600160401b0382111761026657604052565b90601f801991011681019081106001600160401b0382111761026657604052565b90604051918260008254926102c384610202565b90818452600194858116908160001461033257506001146102ef575b50506102ed9250038361028e565b565b9093915060005260209081600020936000915b81831061031a5750506102ed935082010138806102df565b85548884018501529485019487945091830191610302565b9150506102ed94506020925060ff191682840152151560051b82010138806102df565b919082519283825260005b848110610381575050826000602080949584010152601f8019910116010190565b602081830181015184830182015201610360565b94989796936103da60e097946103cc6001600160401b03956103e89560018060a01b03168a526101008060208c01528a0190610355565b9088820360408a0152610355565b908682036060880152610355565b97166080840152151560a0830152151560c08201520152565b503461000e57604036600319011261000e5760043560005260016020526040600020602435600052602052604060002060018060a01b0381541661049661044a600184016102af565b91610457600285016102af565b92610464600386016102af565b94600560048201549101549260405196879660ff8460481c16946001600160401b0360ff8660401c1695169389610395565b0390f35b9181601f8401121561000e578235916001600160401b03831161000e576020838186019501011161000e57565b60a435906001600160401b038216820361000e57565b60c435906001600160401b038216820361000e57565b503461000e5760c036600319011261000e576001600160401b0360243581811161000e5761052590369060040161049a565b60443583811161000e5761053d90369060040161049a565b60649291923585811161000e5761055890369060040161049a565b9160843596871161000e5761057461058897369060040161049a565b95909461057f6104c7565b97600435611574565b005b9081602091031261000e573590565b503461000e57602036600319011261000e5760206105b86004356119b4565b6040516001600160a01b039091168152f35b90604060031983011261000e5760043591602435906001600160401b03821161000e576105f99160040161049a565b9091565b90602061060e928181520190610355565b90565b503461000e5761049661062c610626366105ca565b91611910565b604051918291602083526020830190610355565b503461000e5761064f366105ca565b90610678610674600161066c866000526000602052604060002090565b015460ff1690565b1590565b610734576040516331a9108f60e11b8152600481018490526001600160a01b036020826024817f000000000000000000000000000000000000000000000000000000000000000085165afa918215610727575b6000926106f7575b50339116036106e5576105889261177c565b6040516302655e8760e21b8152600490fd5b61071991925060203d8111610720575b610711818361028e565b810190610f5e565b90386106d3565b503d610707565b61072f610f73565b6106cb565b60405163382411b160e21b8152600490fd5b503461000e57604036600319011261000e576001600160401b0360043581811161000e5761077890369060040161049a565b60249291923591821161000e576104969261079a61062c93369060040161049a565b929091611b60565b503461000e576107b1366105ca565b906107ce610674600161066c866000526000602052604060002090565b610734576040516331a9108f60e11b8152600481018490526001600160a01b036020826024817f000000000000000000000000000000000000000000000000000000000000000085165afa91821561085b575b60009261083b575b50339116036106e557610588926116e9565b61085491925060203d811161072057610711818361028e565b9038610829565b610863610f73565b610821565b503461000e57602036600319011261000e5760043560005260006020526108b2604060002060ff600161089a836102af565b92015416604051928392604084526040840190610355565b90151560208301520390f35b600091031261000e57565b503461000e57600036600319011261000e576040517f00000000000000000000000000000000000000000000000000000000000000006001600160a01b03168152602090f35b6001600160a01b0381160361000e57565b604435906102ed8261090f565b503461000e5760e036600319011261000e576001600160401b0360243581811161000e5761095f90369060040161049a565b9190610969610920565b60643583811161000e5761098190369060040161049a565b60849591953585811161000e5761099c90369060040161049a565b9160a43596871161000e57610496976109bc6109d098369060040161049a565b9690956109c76104dd565b9860043561112b565b6040519081529081906020820190565b604051906102ed82610273565b6020906001600160401b038111610a0a575b601f01601f19160190565b610a1261023c565b6109ff565b60405190602082018281106001600160401b03821117610a3b575b60405260008252565b610a4361023c565b610a32565b60405190610a5582610273565b600a8252697a6b636f6e746578742d60b01b6020830152565b503461000e57600036600319011261000e5761049661062c610a48565b503461000e5760208060031936011261000e57600480356001600160401b03811161000e57610abd903690830161049a565b9290610ad4610674610acd610a48565b8684612146565b610d5457610b09610ae6368684610f27565b8381519101206000805160206126ea833981519152600052602052604060002090565b92610b23600161066c866000526000602052604060002090565b610d4557604080516331a9108f60e11b815282810186815291946001600160a01b037f000000000000000000000000000000000000000000000000000000000000000081169491939192918490839081906020010381885afa918215610d38575b600092610d19575b5033911603610d0b57845163e985e9c560e01b8152338282019081523060208201528390829081906040010381875afa908115610cfe575b600091610cd1575b5015610cc357823b1561000e578451630c4b7b8560e11b81529081018681523060208201526104969787947f4c5a63cd35c079126be9db50d14235abb4ff5ec3bc89d1f1f2975fe42894e5ea94610c8c949293610c7f93919260009183919082908490829060400103925af18015610cb6575b610c9d575b50610c66610c506109e0565b91610c5c36868b610f27565b8352820160019052565b610c7a866000526000602052604060002090565b610fec565b855191829133968361111a565b0390a3519081529081906020820190565b80610caa610cb092610253565b806108be565b38610c44565b610cbe610f73565b610c3f565b845163199b032360e21b8152fd5b610cf19150833d8511610cf7575b610ce9818361028e565b810190610f80565b38610bcc565b503d610cdf565b610d06610f73565b610bc4565b84516302655e8760e21b8152fd5b610d31919250843d861161072057610711818361028e565b9038610b8c565b610d40610f73565b610b84565b60405163554b4d3f60e11b8152fd5b604051630146d71960e21b81528390fd5b503461000e57602036600319011261000e5760043560005260036020526040806000206001815491015482519182526020820152f35b503461000e57600036600319011261000e5760206040516000805160206126ea8339815191528152f35b503461000e57602036600319011261000e57600435600052600460205261049661062c60406000206102af565b503461000e57604036600319011261000e576004356000526002602052604060002060243560005260205261049661062c60406000206102af565b503461000e57606036600319011261000e576004356024356001600160401b03811161000e57610e6190369060040161049a565b60443591610e9d610e73368484610f27565b60208151910120610e8e866000526001602052604060002090565b90600052602052604060002090565b6004810154610eb09060481c60ff161590565b610f15578054336001600160a01b0390911603610f0357837fda7e6a1b6730bbacf075fee24775a76704ee1ff76da61bd6b1aad82243764ac8946005610efe930155604051938493846118b7565b0390a2005b604051637aafae9760e01b8152600490fd5b6040516314f1b51b60e31b8152600490fd5b929192610f33826109ed565b91610f41604051938461028e565b82948184528183011161000e578281602093846000960137010152565b9081602091031261000e575161060e8161090f565b506040513d6000823e3d90fd5b9081602091031261000e5751801515810361000e5790565b90601f8111610fa657505050565b600091825260208220906020601f850160051c83019410610fe2575b601f0160051c01915b828110610fd757505050565b818155600101610fcb565b9092508290610fc2565b9080519081516001600160401b0381116110ec575b6110158161100f8654610202565b86610f98565b6020928390601f8311600114611075579282611057936102ed97969360019660009261106a575b5050600019600383901b1c191690851b1785555b0151151590565b91019060ff801983541691151516179055565b01519050388061103c565b90601f1983169161108b87600052602060002090565b9260005b8181106110d55750936102ed9796936001969387938361105798106110bc575b505050811b018555611050565b015160001960f88460031b161c191690553880806110af565b92938760018192878601518155019501930161108f565b6110f461023c565b611001565b908060209392818452848401376000828201840152601f01601f1916010190565b91602061060e9381815201916110f9565b99989796959493929190611151610674600161066c8e6000526000602052604060002090565b610734576040516331a9108f60e11b8152600481018c90526001600160a01b036020826024817f000000000000000000000000000000000000000000000000000000000000000085165afa9182156111de575b6000926111be575b50339116036106e55761060e9a61134b565b6111d791925060203d811161072057610711818361028e565b90386111ac565b6111e6610f73565b6111a4565b9092916001600160401b0381116112b3575b6112118161120b8454610202565b84610f98565b6000601f821160011461124b5781929394600092611240575b50508160011b916000199060031b1c1916179055565b01359050388061122a565b601f1982169461126084600052602060002090565b91805b87811061129b575083600195969710611281575b505050811b019055565b0135600019600384901b60f8161c19169055388080611277565b90926020600181928686013581550194019101611263565b6112bb61023c565b6111fd565b9081602091031261000e575190565b949695916112f7906001600160401b039460c09693885260e0602089015260e08801916110f9565b6001600160a01b0391821660408701529616606085015260006080850181905260a085015216910152565b9160209161133b919594956040855260408501916110f9565b6001600160a01b03909416910152565b989a999095929397919694611361368989610f27565b602081519101209b6113818d610e8e8d6000526001602052604060002090565b93600485019a6113968c5460ff9060481c1690565b611562578e610e8e8e6114577f213415f26d670758ea66f1e9d1a769ba1c10cd205288304664a1451caf8af8479f8f978f97906115229f918f6114d99f9e60209f61142b9561146c9f9161141c611425936114679f611413600398889060018060a01b03166bffffffffffffffffffffffff60a01b825416179055565b600187016111eb565b600284016111eb565b016111eb565b8054690100000000000000000069ff00ffffffffffffffff199091166001600160401b038c1617179055565b6000526002602052604060002090565b6111eb565b6114b86114828c8b600052602052604060002090565b9b61148b6109e0565b908b8252848201526114a78d6000526003602052604060002090565b906020600191805184550151910155565b6040516309306bd160e21b815292839182919030878b8b8f600488016112cf565b038160007f00000000000000000000000000000000000000000000000000000000000000006001600160a01b03165af18015611555575b611527575b5060405193849384611322565b0390a2565b6115479060203d811161154e575b61153f818361028e565b8101906112c0565b5038611515565b503d611535565b61155d610f73565b611510565b6040516361a21cbf60e11b8152600490fd5b989796959493929190611599610674600161066c8d6000526000602052604060002090565b610734576040516331a9108f60e11b8152600481018b90526001600160a01b036020826024817f000000000000000000000000000000000000000000000000000000000000000085165afa918215611626575b600092611606575b50339116036106e5576102ed99611633565b61161f91925060203d811161072057610711818361028e565b90386115f4565b61162e610f73565b6115ec565b98939790969594919561164736888a610f27565b602081519101208a6000526001602052604060002090600052602052604060002093600485019460ff865460481c1615610f15576114256116d2986116b79661141c7f63a0646c92ed3f94d33d04c6b3f9555b11f42aa13194b0790179632cb91c929d9e600396600187016111eb565b906001600160401b03166001600160401b0319825416179055565b6115226040519283926020845260208401916110f9565b91906116f6368383610f27565b6020815191012083600052600160205260406000209060005260205260046040600020019182549260ff8460481c1615610f1557680100000000000000007fc94b16046d6f9988b7fce16e4e68e3e0f182fa5f4b72b4640d16ff67f6a658c09468ff000000000000000019161790556115226040519283926020845260208401916110f9565b909291816000526020936004855260406000206001600160401b0383116118aa575b6117b2836117ac8354610202565b83610f98565b600095601f841160011461181c5750827ffc456b67fe1a94943469ed3aad2eb03d64390834dd69c0800cba407300afc310949596600091611811575b508360011b906000198560031b1c19161790555b6115226040519283928361111a565b9050820135386117ee565b601f1984169661183183600052602060002090565b9181905b898210611892575050847ffc456b67fe1a94943469ed3aad2eb03d64390834dd69c0800cba407300afc31096979810611878575b5050600183811b019055611802565b830135600019600386901b60f8161c191690553880611869565b80600184958294958901358155019401920190611835565b6118b261023c565b61179e565b9392916020916118cf916040875260408701916110f9565b930152565b90604051604081018181106001600160401b03821117611903575b604052602060018294805484520154910152565b61190b61023c565b6118ef565b909181600052600360205260406000206020604051604081018181106001600160401b038211176119a7575b6040526001835493848352015491829101528161198e57505081600052600060205260ff600160406000200154166119795750505061060e610a17565b61060e92611988913691610f27565b906121b6565b916119a19193509361060e943691610f27565b916122d2565b6119af61023c565b61193c565b6119d06119cb826000526003602052604060002090565b6118d4565b805180611a7e5750506119f2600161066c836000526000602052604060002090565b6119fc5750600090565b6040516331a9108f60e11b815260048101919091526001600160a01b03906020816024817f000000000000000000000000000000000000000000000000000000000000000086165afa60009181611a5e575b50611a5a575050600090565b1690565b611a7791925060203d811161072057610711818361028e565b9038611a4e565b61060e9250611abe916020611aa0611ab1936000526001602052604060002090565b910151600052602052604060002090565b546001600160a01b031690565b6001600160a01b031690565b9060041161000e5790600490565b909291928360041161000e57831161000e57600401916003190190565b6001600160e01b03199035818116939260048110611b1257505050565b60040360031b82901b16169150565b919060408382031261000e578235926020810135906001600160401b03821161000e57019080601f8301121561000e5781602061060e93359101610f27565b929190611b80611b708484611aca565b6001600160e01b03199291611af5565b16631674750f60e21b8114611bfe57631d9dabef60e11b14611bae57604051631e8b844160e01b8152600490fd5b611bf093611bce611bc68561060e96611bd396611ad8565b81019061058a565b611d13565b604080516001600160a01b03909216602083015290928391820190565b03601f19810183528261028e565b5092611bf093611c20611c188561060e96611c2796611ad8565b810190611b21565b9290611c36565b604051928391602083016105fd565b929190836000526003602052611c4f60406000206118d4565b80519081611d01575050611c72600161066c866000526000602052604060002090565b611cf657611c81929350611e66565b91929180611cc8575b611cbf5750611ca8600161066c846000526000602052604060002090565b611cb657505061060e610a17565b61060e916121b6565b61060e926122d2565b50611cf16004611ce683610e8e876000526001602052604060002090565b015460481c60ff1690565b611c8a565b505061060e916121b6565b6020015161060e9550925090506122d2565b9190611d2c6119cb846000526003602052604060002090565b805180611e43575050611d4e600161066c856000526000602052604060002090565b611e1f57611d5c9250611e66565b611e045750611d7a600161066c836000526000602052604060002090565b611d845750600090565b6040516331a9108f60e11b8152600481019190915260208180602481015b03817f00000000000000000000000000000000000000000000000000000000000000006001600160a01b03165afa60009181611de4575b5061060e5750600090565b611dfd91925060203d811161072057610711818361028e565b9038611dd9565b611ab190610e8e61060e936000526001602052604060002090565b50506040516331a9108f60e11b815260048101919091526020818060248101611da2565b61060e9450611ab193506020919250611aa0906000526001602052604060002090565b9190611e728184611fed565b81949115611f7d57611e8590838361205c565b81939115611f6c57611e9890828461205c565b9190928315611f185790611eac929161205c565b5015611ebe5750600092508291829150565b611ee06000805160206126ea8339815191529160008052602052604060002090565b03611f0d57611f06906000805160206126ea833981519152600052602052604060002090565b9190600190565b506000915081908190565b5050505090916000918280526020526000805160206126ea8339815191526040832003611f6557611f60906000805160206126ea833981519152600052602052604060002090565b918190565b5080918190565b505050509050600090600090600090565b5050509050600090600090600090565b50634e487b7160e01b600052603260045260246000fd5b50634e487b7160e01b600052601160045260246000fd5b9060018201809211611fc957565b6102ed611fa4565b6030019081603011611fc957565b6002019081600211611fc957565b811561205257803560f81c918260010180600111612045575b80931561203a57508260011161000e57821161000e57612030903690600019840190600101610f27565b6020815191012091565b939250505060009190565b61204d611fa4565b612006565b5050600090600090565b90808310156120dc578282013560f81c92600181018082116120cf575b6001858301018091116120c2575b8094156120b6575061209890611fbb565b9083821161000e57831161000e576120309136918085039101610f27565b94935050505060009190565b6120ca611fa4565b612087565b6120d7611fa4565b612079565b506000929050565b60019060001981146120f4570190565b6120fc611fa4565b0190565b60209080511561210e570190565b6120fc611f8d565b60219080516001101561210e570190565b90602091805182101561213957010190565b612141611f8d565b010190565b612151913691610f27565b9081518151116121af57600090815b81518110156121a6576001600160f81b03198061217d8387612127565b51169061218a8385612127565b51160361219f5761219a906120e4565b612160565b5050905090565b50505050600190565b5050600090565b90602081519101207f9c726763c8bface49bf143fdcbd5cb6bd85fa7c530f28d46fb3ad73b51552170811461227b577fa6d150790fe7cf0d111c04a5eb0a3e4a8c9d014f08117a3c43dd292d1ffd735c8114612250577f0cac771e47af817ec9649d0d769464cce349f5c0f6372ec4e83fa83d40a97ff61461223b575061060e610a17565b600052600060205261060e60406000206102af565b505060405161225e81610273565b600d81526c0f4d6c6dedce8caf0e8c2eae8d609b1b602082015290565b50600052600460205261060e60406000206102af565b6040519061229e82610273565b600582526466616c736560d81b6020830152565b604051906122bf82610273565b60048252637472756560e01b6020830152565b91906122ec90610e8e846000526001602052604060002090565b60048101549160ff8360481c16156124b45760208151910120917f7ab016a6fd2ad7e0a984d3db6a967dc819e816e856d664326a4aba1f01893b1783146124a4577f8ec16b8b94a2d487b6a8cbe3ddc0dd49e35b2c643f1bd84e409518844fbdba7f8314612494577fd4ddfefc0018ede487f1022a7b1543609ebee19b77e8eaa54c82b89ed82b64198314612484577f6ea56835944ae7703d24e69e5b234a2bdbf58617964b3d550bd4ef5c31e95c88831461246d577f51ebaa56e8dcdfdd61ffb443015ffa4cbdad1fa025ed3773421f8636da626142831461244d57507f1d380e49c93ff0f43ac70d2b0a33077fa9bd0437f282bf5ac0f38fecbb7dab5c821461243d57507f0cac771e47af817ec9649d0d769464cce349f5c0f6372ec4e83fa83d40a97ff614612421575061060e610a17565b61243861060e916000526000602052604060002090565b6102af565b61060e925060059150015461261b565b60401c60ff161592506124659150505761060e6122b2565b61060e612291565b905061060e92506001600160401b03915016612546565b5061060e925060039150016102af565b5061060e925060029150016102af565b5061060e925060019150016102af565b5050505061060e610a17565b60405190608082018281106001600160401b038211176124ec575b604052604282526060366020840137565b6124f461023c565b6124db565b90612503826109ed565b612510604051918261028e565b8281528092612521601f19916109ed565b0190602036910137565b8015612539575b6000190190565b612541611fa4565b612532565b6001600160401b03808216156125e657600092839282815b1694851561257957600a61257285926120e4565b960461255e565b909294509290928461258a826124f9565b935b169081156125de5761259e869161252b565b91600a906125cb6125bb6125b58585850616611fd1565b60ff1690565b60f81b6001600160f81b03191690565b851a6125d78588612127565b530461258c565b509193505050565b50506040516125f481610273565b60018152600360fc1b602082015290565b908160011b9180830460021490151715611fc957565b906126246124c0565b603061262f82612100565b53607861263b82612116565b5360005b6020811061264c57509150565b80846126ca921a600f90818160041c1691601091828410156126dc575b6f181899199a1a9b1b9c1cb0b131b232b360811b9384901a61269b61269561269088612605565b611fdf565b89612127565b5316908110156126cf575b1a6126c46126be6126b961269085612605565b611fbb565b85612127565b536120e4565b61263f565b6126d7611f8d565b6126a6565b6126e4611f8d565b61266956fe93cdeb708b7545dc668eb9280176169d1c33cfd8ed6f04690a0bcc88a93fc4aea2646970667358221220dc9851466810f14d8aeb0bde3e643732d1dcbd68cb8f16a8ade5b070662a9c2b64736f6c63430008110033","linkReferences":{}},"methodIdentifiers":{"ETH_NODE()":"cc473be3","REQUIRED_PREFIX()":"bd357419","addr(bytes32)":"3b3b57de","nameWrapper()":"a8e5fbc0","orgPartners(bytes32)":"cd544a7b","orgs(bytes32)":"a3e84beb","registerOrg(string)":"c2312b84","registerUser(bytes32,string,address,string,string,string,uint64)":"baa9e417","resolve(bytes,bytes)":"9061b923","revokeUser(bytes32,string)":"9f8e3e0d","setPartners(bytes32,string)":"78ce0998","setProofCommitment(bytes32,string,bytes32)":"d9ca69e4","supportsInterface(bytes4)":"01ffc9a7","text(bytes32,string)":"59d1d43c","updateUser(bytes32,string,string,string,string,uint64)":"158d0595","userByNode(bytes32)":"c7fb7794","userLabels(bytes32,bytes32)":"d0aea43a","users(bytes32,bytes32)":"07be6f99"},"id":28}