{"abi":[{"type":"constructor","inputs":[{"name":"_nameWrapper","type":"address","internalType":"contract INameWrapper"}],"stateMutability":"nonpayable"},{"type":"function","name":"ETH_NODE","inputs":[],"outputs":[{"name":"","type":"bytes32","internalType":"bytes32"}],"stateMutability":"view"},{"type":"function","name":"REQUIRED_PREFIX","inputs":[],"outputs":[{"name":"","type":"string","internalType":"string"}],"stateMutability":"view"},{"type":"function","name":"addr","inputs":[{"name":"node","type":"bytes32","internalType":"bytes32"}],"outputs":[{"name":"","type":"address","internalType":"address payable"}],"stateMutability":"view"},{"type":"function","name":"nameWrapper","inputs":[],"outputs":[{"name":"","type":"address","internalType":"contract INameWrapper"}],"stateMutability":"view"},{"type":"function","name":"orgPartners","inputs":[{"name":"","type":"bytes32","internalType":"bytes32"}],"outputs":[{"name":"","type":"string","internalType":"string"}],"stateMutability":"view"},{"type":"function","name":"orgs","inputs":[{"name":"","type":"bytes32","internalType":"bytes32"}],"outputs":[{"name":"label","type":"string","internalType":"string"},{"name":"registered","type":"bool","internalType":"bool"}],"stateMutability":"view"},{"type":"function","name":"registerOrg","inputs":[{"name":"label","type":"string","internalType":"string"}],"outputs":[{"name":"orgNode","type":"bytes32","internalType":"bytes32"}],"stateMutability":"nonpayable"},{"type":"function","name":"registerUser","inputs":[{"name":"orgNode","type":"bytes32","internalType":"bytes32"},{"name":"userLabel","type":"string","internalType":"string"},{"name":"userAddr","type":"address","internalType":"address"},{"name":"emailHash","type":"bytes32","internalType":"bytes32"},{"name":"role","type":"string","internalType":"string"},{"name":"namespaces","type":"string","internalType":"string"},{"name":"maxTag","type":"string","internalType":"string"},{"name":"expiry","type":"uint64","internalType":"uint64"}],"outputs":[{"name":"userNode","type":"bytes32","internalType":"bytes32"}],"stateMutability":"nonpayable"},{"type":"function","name":"resolve","inputs":[{"name":"name","type":"bytes","internalType":"bytes"},{"name":"data","type":"bytes","internalType":"bytes"}],"outputs":[{"name":"","type":"bytes","internalType":"bytes"}],"stateMutability":"view"},{"type":"function","name":"revokeUser","inputs":[{"name":"orgNode","type":"bytes32","internalType":"bytes32"},{"name":"userLabel","type":"string","internalType":"string"}],"outputs":[],"stateMutability":"nonpayable"},{"type":"function","name":"setEmailHash","inputs":[{"name":"orgNode","type":"bytes32","internalType":"bytes32"},{"name":"userLabel","type":"string","internalType":"string"},{"name":"emailHash","type":"bytes32","internalType":"bytes32"}],"outputs":[],"stateMutability":"nonpayable"},{"type":"function","name":"setPartners","inputs":[{"name":"orgNode","type":"bytes32","internalType":"bytes32"},{"name":"partnersCsv","type":"string","internalType":"string"}],"outputs":[],"stateMutability":"nonpayable"},{"type":"function","name":"setProofCommitment","inputs":[{"name":"orgNode","type":"bytes32","internalType":"bytes32"},{"name":"userLabel","type":"string","internalType":"string"},{"name":"commitment","type":"bytes32","internalType":"bytes32"}],"outputs":[],"stateMutability":"nonpayable"},{"type":"function","name":"supportsInterface","inputs":[{"name":"interfaceId","type":"bytes4","internalType":"bytes4"}],"outputs":[{"name":"","type":"bool","internalType":"bool"}],"stateMutability":"pure"},{"type":"function","name":"text","inputs":[{"name":"node","type":"bytes32","internalType":"bytes32"},{"name":"key","type":"string","internalType":"string"}],"outputs":[{"name":"","type":"string","internalType":"string"}],"stateMutability":"view"},{"type":"function","name":"updateUser","inputs":[{"name":"orgNode","type":"bytes32","internalType":"bytes32"},{"name":"userLabel","type":"string","internalType":"string"},{"name":"role","type":"string","internalType":"string"},{"name":"namespaces","type":"string","internalType":"string"},{"name":"maxTag","type":"string","internalType":"string"},{"name":"expiry","type":"uint64","internalType":"uint64"}],"outputs":[],"stateMutability":"nonpayable"},{"type":"function","name":"userByNode","inputs":[{"name":"","type":"bytes32","internalType":"bytes32"}],"outputs":[{"name":"orgNode","type":"bytes32","internalType":"bytes32"},{"name":"userLabelHash","type":"bytes32","internalType":"bytes32"}],"stateMutability":"view"},{"type":"function","name":"userLabels","inputs":[{"name":"","type":"bytes32","internalType":"bytes32"},{"name":"","type":"bytes32","internalType":"bytes32"}],"outputs":[{"name":"","type":"string","internalType":"string"}],"stateMutability":"view"},{"type":"function","name":"users","inputs":[{"name":"","type":"bytes32","internalType":"bytes32"},{"name":"","type":"bytes32","internalType":"bytes32"}],"outputs":[{"name":"userAddr","type":"address","internalType":"address"},{"name":"role","type":"string","internalType":"string"},{"name":"namespaces","type":"string","internalType":"string"},{"name":"maxTag","type":"string","internalType":"string"},{"name":"expiry","type":"uint64","internalType":"uint64"},{"name":"revoked","type":"bool","internalType":"bool"},{"name":"exists","type":"bool","internalType":"bool"},{"name":"proofCommitment","type":"bytes32","internalType":"bytes32"},{"name":"emailHash","type":"bytes32","internalType":"bytes32"}],"stateMutability":"view"},{"type":"event","name":"AddrChanged","inputs":[{"name":"node","type":"bytes32","indexed":true,"internalType":"bytes32"},{"name":"a","type":"address","indexed":false,"internalType":"address"}],"anonymous":false},{"type":"event","name":"EmailHashSet","inputs":[{"name":"orgNode","type":"bytes32","indexed":true,"internalType":"bytes32"},{"name":"userLabel","type":"string","indexed":false,"internalType":"string"},{"name":"emailHash","type":"bytes32","indexed":false,"internalType":"bytes32"}],"anonymous":false},{"type":"event","name":"OrgRegistered","inputs":[{"name":"orgNode","type":"bytes32","indexed":true,"internalType":"bytes32"},{"name":"admin","type":"address","indexed":true,"internalType":"address"},{"name":"label","type":"string","indexed":false,"internalType":"string"}],"anonymous":false},{"type":"event","name":"PartnersSet","inputs":[{"name":"orgNode","type":"bytes32","indexed":true,"internalType":"bytes32"},{"name":"partnersCsv","type":"string","indexed":false,"internalType":"string"}],"anonymous":false},{"type":"event","name":"ProofCommitmentSet","inputs":[{"name":"orgNode","type":"bytes32","indexed":true,"internalType":"bytes32"},{"name":"userLabel","type":"string","indexed":false,"internalType":"string"},{"name":"commitment","type":"bytes32","indexed":false,"internalType":"bytes32"}],"anonymous":false},{"type":"event","name":"TextChanged","inputs":[{"name":"node","type":"bytes32","indexed":true,"internalType":"bytes32"},{"name":"indexedKey","type":"string","indexed":true,"internalType":"string"},{"name":"key","type":"string","indexed":false,"internalType":"string"},{"name":"value","type":"string","indexed":false,"internalType":"string"}],"anonymous":false},{"type":"event","name":"UserRegistered","inputs":[{"name":"orgNode","type":"bytes32","indexed":true,"internalType":"bytes32"},{"name":"userLabel","type":"string","indexed":false,"internalType":"string"},{"name":"userAddr","type":"address","indexed":false,"internalType":"address"}],"anonymous":false},{"type":"event","name":"UserRevoked","inputs":[{"name":"orgNode","type":"bytes32","indexed":true,"internalType":"bytes32"},{"name":"userLabel","type":"string","indexed":false,"internalType":"string"}],"anonymous":false},{"type":"event","name":"UserUpdated","inputs":[{"name":"orgNode","type":"bytes32","indexed":true,"internalType":"bytes32"},{"name":"userLabel","type":"string","indexed":false,"internalType":"string"}],"anonymous":false},{"type":"error","name":"LabelMissingPrefix","inputs":[]},{"type":"error","name":"NotOrgAdmin","inputs":[]},{"type":"error","name":"NotUser","inputs":[]},{"type":"error","name":"OrgAlreadyRegistered","inputs":[]},{"type":"error","name":"OrgNotRegistered","inputs":[]},{"type":"error","name":"UnsupportedSelector","inputs":[]},{"type":"error","name":"UserAlreadyExists","inputs":[]},{"type":"error","name":"UserMissing","inputs":[]},{"type":"error","name":"WrapperNotApproved","inputs":[]}],"bytecode":{"object":"0x60a0346100a957601f612a0138819003918201601f19168301916001600160401b038311848410176100ae578084926020946040528339810103126100a957516001600160a01b03811681036100a95760805260405161293c90816100c5823960805181818161079b015281816108f1015281816109db01528181610b7001528181610fb301528181611278015281816115cd0152818161178d01528181611be00152611f640152f35b600080fd5b634e487b7160e01b600052604160045260246000fdfe60806040526004361015610013575b600080fd5b60003560e01c806301ffc9a71461018f57806307be6f9914610186578063158d05951461017d5780633b3b57de146101745780634aed27da1461016b57806359d1d43c1461016257806378ce0998146101595780639061b923146101505780639f8e3e0d14610147578063a3e84beb1461013e578063a8e5fbc014610135578063bd3574191461012c578063c2312b8414610123578063c7fb77941461011a578063cc473be314610111578063cd544a7b14610108578063d0aea43a146100ff578063d9ca69e4146100f65763e26fa6e6146100ee57600080fd5b61000e610f5f565b5061000e610e8d565b5061000e610e1b565b5061000e610dee565b5061000e610dc4565b5061000e610d8e565b5061000e610ab4565b5061000e610a97565b5061000e6109c4565b5061000e610963565b5061000e61089d565b5061000e610841565b5061000e61073b565b5061000e61070c565b5061000e61060b565b5061000e6105bc565b5061000e610516565b5061000e61041e565b503461000e57602036600319011261000e5760043563ffffffff60e01b811680910361000e576020906301ffc9a760e01b8114908115610205575b81156101f4575b81156101e3575b506040519015158152f35b631d9dabef60e11b149050386101d8565b631674750f60e21b811491506101d1565b639061b92360e01b811491506101ca565b90600182811c92168015610246575b602083101461023057565b634e487b7160e01b600052602260045260246000fd5b91607f1691610225565b50634e487b7160e01b600052604160045260246000fd5b6001600160401b03811161027a57604052565b610282610250565b604052565b604081019081106001600160401b0382111761027a57604052565b90601f801991011681019081106001600160401b0382111761027a57604052565b90604051918260008254926102d784610216565b9081845260019485811690816000146103465750600114610303575b5050610301925003836102a2565b565b9093915060005260209081600020936000915b81831061032e575050610301935082010138806102f3565b85548884018501529485019487945091830191610316565b91505061030194506020925060ff191682840152151560051b82010138806102f3565b919082519283825260005b848110610395575050826000602080949584010152601f8019910116010190565b602081830181015184830182015201610374565b9592936103f261010098956103e46001600160401b0395610400959e9d9c999e60018060a01b03168b526101208060208d01528b0190610369565b9089820360408b0152610369565b908782036060890152610369565b98166080850152151560a0840152151560c083015260e08201520152565b503461000e57604036600319011261000e5760043560005260016020526040600020602435600052602052604060002060018060a01b03815416906104b9610468600183016102c3565b92610475600284016102c3565b92610482600382016102c3565b946004820154600660058401549301549360405197889760ff8460481c16946001600160401b0360ff8660401c169516938a6103a9565b0390f35b9181601f8401121561000e578235916001600160401b03831161000e576020838186019501011161000e57565b60a435906001600160401b038216820361000e57565b60e435906001600160401b038216820361000e57565b503461000e5760c036600319011261000e576001600160401b0360243581811161000e576105489036906004016104bd565b60443583811161000e576105609036906004016104bd565b60649291923585811161000e5761057b9036906004016104bd565b9160843596871161000e576105976105ab9736906004016104bd565b9590946105a26104ea565b97600435611740565b005b9081602091031261000e573590565b503461000e57602036600319011261000e5760206105db600435611b72565b6040516001600160a01b039091168152f35b6001600160a01b0381160361000e57565b60443590610301826105ed565b503461000e5761010036600319011261000e576001600160401b0360243581811161000e5761063e9036906004016104bd565b6106499291926105fe565b9260843583811161000e576106629036906004016104bd565b60a49591953585811161000e5761067d9036906004016104bd565b9160c43596871161000e576104b99761069d6106b59836906004016104bd565b9690956106a8610500565b9860643592600435611229565b6040519081529081906020820190565b90604060031983011261000e5760043591602435906001600160401b03821161000e576106f4916004016104bd565b9091565b906020610709928181520190610369565b90565b503461000e576104b9610727610721366106c5565b91611ace565b604051918291602083526020830190610369565b503461000e5761074a366106c5565b9061077361076f6001610767866000526000602052604060002090565b015460ff1690565b1590565b61082f576040516331a9108f60e11b8152600481018490526001600160a01b036020826024817f000000000000000000000000000000000000000000000000000000000000000085165afa918215610822575b6000926107f2575b50339116036107e0576105ab92611957565b6040516302655e8760e21b8152600490fd5b61081491925060203d811161081b575b61080c81836102a2565b81019061105c565b90386107ce565b503d610802565b61082a611071565b6107c6565b60405163382411b160e21b8152600490fd5b503461000e57604036600319011261000e576001600160401b0360043581811161000e576108739036906004016104bd565b60249291923591821161000e576104b9926108956107279336906004016104bd565b929091611d1e565b503461000e576108ac366106c5565b906108c961076f6001610767866000526000602052604060002090565b61082f576040516331a9108f60e11b8152600481018490526001600160a01b036020826024817f000000000000000000000000000000000000000000000000000000000000000085165afa918215610956575b600092610936575b50339116036107e0576105ab926118c4565b61094f91925060203d811161081b5761080c81836102a2565b9038610924565b61095e611071565b61091c565b503461000e57602036600319011261000e5760043560005260006020526109ad604060002060ff6001610995836102c3565b92015416604051928392604084526040840190610369565b90151560208301520390f35b600091031261000e57565b503461000e57600036600319011261000e576040517f00000000000000000000000000000000000000000000000000000000000000006001600160a01b03168152602090f35b6040519061030182610287565b6020906001600160401b038111610a34575b601f01601f19160190565b610a3c610250565b610a29565b60405190602082018281106001600160401b03821117610a65575b60405260008252565b610a6d610250565b610a5c565b60405190610a7f82610287565b60098252687a6b6d656d6f72792d60b81b6020830152565b503461000e57600036600319011261000e576104b9610727610a72565b503461000e5760208060031936011261000e57600480356001600160401b03811161000e57610ae690369083016104bd565b9290610afd61076f610af6610a72565b8684612304565b610d7d57610b32610b0f368684611025565b8381519101206000805160206128e7833981519152600052602052604060002090565b92610b4c6001610767866000526000602052604060002090565b610d6e57604080516331a9108f60e11b815282810186815291946001600160a01b037f000000000000000000000000000000000000000000000000000000000000000081169491939192918490839081906020010381885afa918215610d61575b600092610d42575b5033911603610d3457845163e985e9c560e01b8152338282019081523060208201528390829081906040010381875afa908115610d27575b600091610cfa575b5015610cec57823b1561000e578451630c4b7b8560e11b81529081018681523060208201526104b99787947f4c5a63cd35c079126be9db50d14235abb4ff5ec3bc89d1f1f2975fe42894e5ea94610cb5949293610ca893919260009183919082908490829060400103925af18015610cdf575b610cc6575b50610c8f610c79610a0a565b91610c8536868b611025565b8352820160019052565b610ca3866000526000602052604060002090565b6110ea565b8551918291339683611218565b0390a3519081529081906020820190565b80610cd3610cd992610267565b806109b9565b38610c6d565b610ce7611071565b610c68565b845163199b032360e21b8152fd5b610d1a9150833d8511610d20575b610d1281836102a2565b81019061107e565b38610bf5565b503d610d08565b610d2f611071565b610bed565b84516302655e8760e21b8152fd5b610d5a919250843d861161081b5761080c81836102a2565b9038610bb5565b610d69611071565b610bad565b60405163554b4d3f60e11b8152fd5b604051630146d71960e21b81528390fd5b503461000e57602036600319011261000e5760043560005260036020526040806000206001815491015482519182526020820152f35b503461000e57600036600319011261000e5760206040516000805160206128e78339815191528152f35b503461000e57602036600319011261000e5760043560005260046020526104b961072760406000206102c3565b503461000e57604036600319011261000e57600435600052600260205260406000206024356000526020526104b961072760406000206102c3565b90606060031983011261000e5760043591602435906001600160401b03821161000e57610e85916004016104bd565b909160443590565b503461000e57610e9c36610e56565b91610ed5610eab368484611025565b60208151910120610ec6866000526001602052604060002090565b90600052602052604060002090565b6004810154610ee89060481c60ff161590565b610f4d578054336001600160a01b0390911603610f3b57837fda7e6a1b6730bbacf075fee24775a76704ee1ff76da61bd6b1aad82243764ac8946005610f369301556040519384938461144a565b0390a2005b604051637aafae9760e01b8152600490fd5b6040516314f1b51b60e31b8152600490fd5b503461000e57610f6e36610e56565b91610f8b61076f6001610767876000526000602052604060002090565b61082f576040516331a9108f60e11b8152600481018590526001600160a01b036020826024817f000000000000000000000000000000000000000000000000000000000000000085165afa918215611018575b600092610ff8575b50339116036107e0576105ab936116ca565b61101191925060203d811161081b5761080c81836102a2565b9038610fe6565b611020611071565b610fde565b92919261103182610a17565b9161103f60405193846102a2565b82948184528183011161000e578281602093846000960137010152565b9081602091031261000e5751610709816105ed565b506040513d6000823e3d90fd5b9081602091031261000e5751801515810361000e5790565b90601f81116110a457505050565b600091825260208220906020601f850160051c830194106110e0575b601f0160051c01915b8281106110d557505050565b8181556001016110c9565b90925082906110c0565b9080519081516001600160401b0381116111ea575b6111138161110d8654610216565b86611096565b6020928390601f831160011461117357928261115593610301979693600196600092611168575b5050600019600383901b1c191690851b1785555b0151151590565b91019060ff801983541691151516179055565b01519050388061113a565b90601f1983169161118987600052602060002090565b9260005b8181106111d35750936103019796936001969387938361115598106111ba575b505050811b01855561114e565b015160001960f88460031b161c191690553880806111ad565b92938760018192878601518155019501930161118d565b6111f2610250565b6110ff565b908060209392818452848401376000828201840152601f01601f1916010190565b9160206107099381815201916111f7565b9a9998979695949392919061125061076f60016107678f6000526000602052604060002090565b61082f576040516331a9108f60e11b8152600481018d90526001600160a01b036020826024817f000000000000000000000000000000000000000000000000000000000000000085165afa9182156112dd575b6000926112bd575b50339116036107e0576107099b611467565b6112d691925060203d811161081b5761080c81836102a2565b90386112ab565b6112e5611071565b6112a3565b9092916001600160401b0381116113b2575b6113108161130a8454610216565b84611096565b6000601f821160011461134a578192939460009261133f575b50508160011b916000199060031b1c1916179055565b013590503880611329565b601f1982169461135f84600052602060002090565b91805b87811061139a575083600195969710611380575b505050811b019055565b0135600019600384901b60f8161c19169055388080611376565b90926020600181928686013581550194019101611362565b6113ba610250565b6112fc565b9081602091031261000e575190565b949695916113f6906001600160401b039460c09693885260e0602089015260e08801916111f7565b6001600160a01b0391821660408701529616606085015260006080850181905260a085015216910152565b9160209161143a919594956040855260408501916111f7565b6001600160a01b03909416910152565b939291602091611462916040875260408701916111f7565b930152565b999b9a929890969b9791979593949536611482908a8a611025565b805190602001209c8d61149f8d6000526001602052604060002090565b60009182526020526040902090600482019485546114c19060ff9060481c1690565b6116b85782546001600160a01b0319166001600160a01b038e161783558d998a988a600686015560018501916114f6926112ea565b61150391600284016112ea565b60030191611510926112ea565b80546001600160401b03831669ff00ffffffffffffffff1990911617690100000000000000000017905560008281526002602090815260408083208d8452909152902061156090879087906112ea565b6115738a83600052602052604060002090565b9961157c610a0a565b9083825260208201526115998b6000526003602052604060002090565b815181556020909101516001909101556040519384916309306bd160e21b83523089898960048701956115cb966113ce565b7f00000000000000000000000000000000000000000000000000000000000000006001600160a01b031691859103815a602094600091f180157fdf24166b5eaaf803a56b56e07d10de3a184c1f4a57d76d8080941065a17077eb97611678957f213415f26d670758ea66f1e9d1a769ba1c10cd205288304664a1451caf8af84793611669936116ab575b61167d575b50604051918291898984611421565b0390a26040519384938461144a565b0390a2565b61169d9060203d81116116a4575b61169581836102a2565b8101906113bf565b503861165a565b503d61168b565b6116b3611071565b611655565b6040516361a21cbf60e11b8152600490fd5b9291906116d8368383611025565b60208151910120846000526001602052604060002090600052602052604060002060ff600482015460481c1615610f4d57837fdf24166b5eaaf803a56b56e07d10de3a184c1f4a57d76d8080941065a17077eb9460066116789301556040519384938461144a565b98979695949392919061176561076f60016107678d6000526000602052604060002090565b61082f576040516331a9108f60e11b8152600481018b90526001600160a01b036020826024817f000000000000000000000000000000000000000000000000000000000000000085165afa9182156117f2575b6000926117d2575b50339116036107e057610301996117ff565b6117eb91925060203d811161081b5761080c81836102a2565b90386117c0565b6117fa611071565b6117b8565b98939790969594919561181336888a611025565b602081519101208a6000526001602052604060002090600052602052604060002093600485019460ff865460481c1615610f4d5761188c6118ad98611892966118837f63a0646c92ed3f94d33d04c6b3f9555b11f42aa13194b0790179632cb91c929d9e600396600187016112ea565b600284016112ea565b016112ea565b906001600160401b03166001600160401b0319825416179055565b6116786040519283926020845260208401916111f7565b91906118d1368383611025565b6020815191012083600052600160205260406000209060005260205260046040600020019182549260ff8460481c1615610f4d57680100000000000000007fc94b16046d6f9988b7fce16e4e68e3e0f182fa5f4b72b4640d16ff67f6a658c09468ff000000000000000019161790556116786040519283926020845260208401916111f7565b909291816000526020936004855260406000206001600160401b038311611a85575b61198d836119878354610216565b83611096565b600095601f84116001146119f75750827ffc456b67fe1a94943469ed3aad2eb03d64390834dd69c0800cba407300afc3109495966000916119ec575b508360011b906000198560031b1c19161790555b61167860405192839283611218565b9050820135386119c9565b601f19841696611a0c83600052602060002090565b9181905b898210611a6d575050847ffc456b67fe1a94943469ed3aad2eb03d64390834dd69c0800cba407300afc31096979810611a53575b5050600183811b0190556119dd565b830135600019600386901b60f8161c191690553880611a44565b80600184958294958901358155019401920190611a10565b611a8d610250565b611979565b90604051604081018181106001600160401b03821117611ac1575b604052602060018294805484520154910152565b611ac9610250565b611aad565b909181600052600360205260406000206020604051604081018181106001600160401b03821117611b65575b60405260018354938483520154918291015281611b4c57505081600052600060205260ff60016040600020015416611b3757505050610709610a41565b61070992611b46913691611025565b90612374565b91611b5f91935093610709943691611025565b91612498565b611b6d610250565b611afa565b611b8e611b89826000526003602052604060002090565b611a92565b805180611c3c575050611bb06001610767836000526000602052604060002090565b611bba5750600090565b6040516331a9108f60e11b815260048101919091526001600160a01b03906020816024817f000000000000000000000000000000000000000000000000000000000000000086165afa60009181611c1c575b50611c18575050600090565b1690565b611c3591925060203d811161081b5761080c81836102a2565b9038611c0c565b6107099250611c7c916020611c5e611c6f936000526001602052604060002090565b910151600052602052604060002090565b546001600160a01b031690565b6001600160a01b031690565b9060041161000e5790600490565b909291928360041161000e57831161000e57600401916003190190565b6001600160e01b03199035818116939260048110611cd057505050565b60040360031b82901b16169150565b919060408382031261000e578235926020810135906001600160401b03821161000e57019080601f8301121561000e5781602061070993359101611025565b929190611d3e611d2e8484611c88565b6001600160e01b03199291611cb3565b16631674750f60e21b8114611dbc57631d9dabef60e11b14611d6c57604051631e8b844160e01b8152600490fd5b611dae93611d8c611d848561070996611d9196611c96565b8101906105ad565b611ed1565b604080516001600160a01b03909216602083015290928391820190565b03601f1981018352826102a2565b5092611dae93611dde611dd68561070996611de596611c96565b810190611cdf565b9290611df4565b604051928391602083016106f8565b929190836000526003602052611e0d6040600020611a92565b80519081611ebf575050611e306001610767866000526000602052604060002090565b611eb457611e3f929350612024565b91929180611e86575b611e7d5750611e666001610767846000526000602052604060002090565b611e74575050610709610a41565b61070991612374565b61070992612498565b50611eaf6004611ea483610ec6876000526001602052604060002090565b015460481c60ff1690565b611e48565b505061070991612374565b60200151610709955092509050612498565b9190611eea611b89846000526003602052604060002090565b805180612001575050611f0c6001610767856000526000602052604060002090565b611fdd57611f1a9250612024565b611fc25750611f386001610767836000526000602052604060002090565b611f425750600090565b6040516331a9108f60e11b8152600481019190915260208180602481015b03817f00000000000000000000000000000000000000000000000000000000000000006001600160a01b03165afa60009181611fa2575b506107095750600090565b611fbb91925060203d811161081b5761080c81836102a2565b9038611f97565b611c6f90610ec6610709936000526001602052604060002090565b50506040516331a9108f60e11b815260048101919091526020818060248101611f60565b6107099450611c6f93506020919250611c5e906000526001602052604060002090565b919061203081846121ab565b8194911561213b5761204390838361221a565b8193911561212a5761205690828461221a565b91909283156120d6579061206a929161221a565b501561207c5750600092508291829150565b61209e6000805160206128e78339815191529160008052602052604060002090565b036120cb576120c4906000805160206128e7833981519152600052602052604060002090565b9190600190565b506000915081908190565b5050505090916000918280526020526000805160206128e783398151915260408320036121235761211e906000805160206128e7833981519152600052602052604060002090565b918190565b5080918190565b505050509050600090600090600090565b5050509050600090600090600090565b50634e487b7160e01b600052603260045260246000fd5b50634e487b7160e01b600052601160045260246000fd5b906001820180921161218757565b610301612162565b603001908160301161218757565b600201908160021161218757565b811561221057803560f81c918260010180600111612203575b8093156121f857508260011161000e57821161000e576121ee903690600019840190600101611025565b6020815191012091565b939250505060009190565b61220b612162565b6121c4565b5050600090600090565b908083101561229a578282013560f81c926001810180821161228d575b600185830101809111612280575b809415612274575061225690612179565b9083821161000e57831161000e576121ee9136918085039101611025565b94935050505060009190565b612288612162565b612245565b612295612162565b612237565b506000929050565b60019060001981146122b2570190565b6122ba612162565b0190565b6020908051156122cc570190565b6122ba61214b565b6021908051600110156122cc570190565b9060209180518210156122f757010190565b6122ff61214b565b010190565b61230f913691611025565b90815181511161236d57600090815b8151811015612364576001600160f81b03198061233b83876122e5565b51169061234883856122e5565b51160361235d57612358906122a2565b61231e565b5050905090565b50505050600190565b5050600090565b90602081519101207fba139793d8cf620ddfe12fbd6425cf798e13f8fdc86dab8bcb835b69d3b7bb588114612441577f05acac8085eaf31957b40cdc62329bbf335568589e246a65dcf6f7f22c36030a811461240e577f9cc4de9862fea61ace64a402c1d9a8e1bf0e7dbd2d1628d1015b23b7ad0b1c55146123f95750610709610a41565b600052600060205261070960406000206102c3565b505060405161241c81610287565b60158152743d35b6b2b6b7b93cb0baba3437b934bd30ba34b7b760591b602082015290565b50600052600460205261070960406000206102c3565b6040519061246482610287565b600582526466616c736560d81b6020830152565b6040519061248582610287565b60048252637472756560e01b6020830152565b91906124b290610ec6846000526001602052604060002090565b60048101549160ff8360481c16156126b15760208151910120917f59ce2b09273e2887e30faf86843b5a4362974610514cd1e56a5c369d338814df83146126a1577fc4f2b716e9a48afd0e0fefcd0faf402f084fa6055cc206df0753611a4730826c8314612691577f89740df66df1bb7ddb7261070ead3fa7516c9f71b239fb079d3f17b3a7b9cb888314612681577f796e35822753f521059478b9001c9770a7910140407dcb50ab342414430dd9a2831461266a577ff522efa668bb1e2b0a00ece51d95ace5102105004d9c703a02a8d57c6690c8b2831461264a57507f35da8047630c726a7398a13a40cce257eabb68ecf2be6c396c1122272a6bbea3821461263a577f09586ecf5efd54bf7de60a39a6aeed621f2d586f5bbe858b92a409ef1a4a4ab3821461262a57507f9cc4de9862fea61ace64a402c1d9a8e1bf0e7dbd2d1628d1015b23b7ad0b1c551461260e5750610709610a41565b612625610709916000526000602052604060002090565b6102c3565b6107099250600691500154612818565b6107099250600591500154612818565b60401c60ff1615925061266291505057610709612478565b610709612457565b905061070992506001600160401b03915016612743565b50610709925060039150016102c3565b50610709925060029150016102c3565b50610709925060019150016102c3565b50505050610709610a41565b60405190608082018281106001600160401b038211176126e9575b604052604282526060366020840137565b6126f1610250565b6126d8565b9061270082610a17565b61270d60405191826102a2565b828152809261271e601f1991610a17565b0190602036910137565b8015612736575b6000190190565b61273e612162565b61272f565b6001600160401b03808216156127e357600092839282815b1694851561277657600a61276f85926122a2565b960461275b565b9092945092909284612787826126f6565b935b169081156127db5761279b8691612728565b91600a906127c86127b86127b2858585061661218f565b60ff1690565b60f81b6001600160f81b03191690565b851a6127d485886122e5565b5304612789565b509193505050565b50506040516127f181610287565b60018152600360fc1b602082015290565b908160011b918083046002149015171561218757565b906128216126bd565b603061282c826122be565b536078612838826122d4565b5360005b6020811061284957509150565b80846128c7921a600f90818160041c1691601091828410156128d9575b6f181899199a1a9b1b9c1cb0b131b232b360811b9384901a61289861289261288d88612802565b61219d565b896122e5565b5316908110156128cc575b1a6128c16128bb6128b661288d85612802565b612179565b856122e5565b536122a2565b61283c565b6128d461214b565b6128a3565b6128e161214b565b61286656fe93cdeb708b7545dc668eb9280176169d1c33cfd8ed6f04690a0bcc88a93fc4aea2646970667358221220e5ff65970f67d518890e69cd95f1c4a4aa540d54bc714dc6e36fc2a74643ea7964736f6c63430008110033","linkReferences":{}},"methodIdentifiers":{"ETH_NODE()":"cc473be3","REQUIRED_PREFIX()":"bd357419","addr(bytes32)":"3b3b57de","nameWrapper()":"a8e5fbc0","orgPartners(bytes32)":"cd544a7b","orgs(bytes32)":"a3e84beb","registerOrg(string)":"c2312b84","registerUser(bytes32,string,address,bytes32,string,string,string,uint64)":"4aed27da","resolve(bytes,bytes)":"9061b923","revokeUser(bytes32,string)":"9f8e3e0d","setEmailHash(bytes32,string,bytes32)":"e26fa6e6","setPartners(bytes32,string)":"78ce0998","setProofCommitment(bytes32,string,bytes32)":"d9ca69e4","supportsInterface(bytes4)":"01ffc9a7","text(bytes32,string)":"59d1d43c","updateUser(bytes32,string,string,string,string,uint64)":"158d0595","userByNode(bytes32)":"c7fb7794","userLabels(bytes32,bytes32)":"d0aea43a","users(bytes32,bytes32)":"07be6f99"},"id":59}