{"abi":[{"type":"constructor","inputs":[{"name":"_nameWrapper","type":"address","internalType":"contract INameWrapper"}],"stateMutability":"nonpayable"},{"type":"function","name":"ETH_NODE","inputs":[],"outputs":[{"name":"","type":"bytes32","internalType":"bytes32"}],"stateMutability":"view"},{"type":"function","name":"REQUIRED_PREFIX","inputs":[],"outputs":[{"name":"","type":"string","internalType":"string"}],"stateMutability":"view"},{"type":"function","name":"addr","inputs":[{"name":"node","type":"bytes32","internalType":"bytes32"}],"outputs":[{"name":"","type":"address","internalType":"address payable"}],"stateMutability":"view"},{"type":"function","name":"nameWrapper","inputs":[],"outputs":[{"name":"","type":"address","internalType":"contract INameWrapper"}],"stateMutability":"view"},{"type":"function","name":"orgPartners","inputs":[{"name":"","type":"bytes32","internalType":"bytes32"}],"outputs":[{"name":"","type":"string","internalType":"string"}],"stateMutability":"view"},{"type":"function","name":"orgs","inputs":[{"name":"","type":"bytes32","internalType":"bytes32"}],"outputs":[{"name":"label","type":"string","internalType":"string"},{"name":"registered","type":"bool","internalType":"bool"}],"stateMutability":"view"},{"type":"function","name":"registerOrg","inputs":[{"name":"label","type":"string","internalType":"string"}],"outputs":[{"name":"orgNode","type":"bytes32","internalType":"bytes32"}],"stateMutability":"nonpayable"},{"type":"function","name":"registerUser","inputs":[{"name":"orgNode","type":"bytes32","internalType":"bytes32"},{"name":"userLabel","type":"string","internalType":"string"},{"name":"userAddr","type":"address","internalType":"address"},{"name":"role","type":"string","internalType":"string"},{"name":"namespaces","type":"string","internalType":"string"},{"name":"maxTag","type":"string","internalType":"string"},{"name":"expiry","type":"uint64","internalType":"uint64"}],"outputs":[{"name":"userNode","type":"bytes32","internalType":"bytes32"}],"stateMutability":"nonpayable"},{"type":"function","name":"resolve","inputs":[{"name":"name","type":"bytes","internalType":"bytes"},{"name":"data","type":"bytes","internalType":"bytes"}],"outputs":[{"name":"","type":"bytes","internalType":"bytes"}],"stateMutability":"view"},{"type":"function","name":"revokeUser","inputs":[{"name":"orgNode","type":"bytes32","internalType":"bytes32"},{"name":"userLabel","type":"string","internalType":"string"}],"outputs":[],"stateMutability":"nonpayable"},{"type":"function","name":"setPartners","inputs":[{"name":"orgNode","type":"bytes32","internalType":"bytes32"},{"name":"partnersCsv","type":"string","internalType":"string"}],"outputs":[],"stateMutability":"nonpayable"},{"type":"function","name":"setProofCommitment","inputs":[{"name":"orgNode","type":"bytes32","internalType":"bytes32"},{"name":"userLabel","type":"string","internalType":"string"},{"name":"commitment","type":"bytes32","internalType":"bytes32"}],"outputs":[],"stateMutability":"nonpayable"},{"type":"function","name":"supportsInterface","inputs":[{"name":"interfaceId","type":"bytes4","internalType":"bytes4"}],"outputs":[{"name":"","type":"bool","internalType":"bool"}],"stateMutability":"pure"},{"type":"function","name":"text","inputs":[{"name":"node","type":"bytes32","internalType":"bytes32"},{"name":"key","type":"string","internalType":"string"}],"outputs":[{"name":"","type":"string","internalType":"string"}],"stateMutability":"view"},{"type":"function","name":"updateUser","inputs":[{"name":"orgNode","type":"bytes32","internalType":"bytes32"},{"name":"userLabel","type":"string","internalType":"string"},{"name":"role","type":"string","internalType":"string"},{"name":"namespaces","type":"string","internalType":"string"},{"name":"maxTag","type":"string","internalType":"string"},{"name":"expiry","type":"uint64","internalType":"uint64"}],"outputs":[],"stateMutability":"nonpayable"},{"type":"function","name":"userByNode","inputs":[{"name":"","type":"bytes32","internalType":"bytes32"}],"outputs":[{"name":"orgNode","type":"bytes32","internalType":"bytes32"},{"name":"userLabelHash","type":"bytes32","internalType":"bytes32"}],"stateMutability":"view"},{"type":"function","name":"userLabels","inputs":[{"name":"","type":"bytes32","internalType":"bytes32"},{"name":"","type":"bytes32","internalType":"bytes32"}],"outputs":[{"name":"","type":"string","internalType":"string"}],"stateMutability":"view"},{"type":"function","name":"users","inputs":[{"name":"","type":"bytes32","internalType":"bytes32"},{"name":"","type":"bytes32","internalType":"bytes32"}],"outputs":[{"name":"userAddr","type":"address","internalType":"address"},{"name":"role","type":"string","internalType":"string"},{"name":"namespaces","type":"string","internalType":"string"},{"name":"maxTag","type":"string","internalType":"string"},{"name":"expiry","type":"uint64","internalType":"uint64"},{"name":"revoked","type":"bool","internalType":"bool"},{"name":"exists","type":"bool","internalType":"bool"},{"name":"proofCommitment","type":"bytes32","internalType":"bytes32"}],"stateMutability":"view"},{"type":"event","name":"AddrChanged","inputs":[{"name":"node","type":"bytes32","indexed":true,"internalType":"bytes32"},{"name":"a","type":"address","indexed":false,"internalType":"address"}],"anonymous":false},{"type":"event","name":"OrgRegistered","inputs":[{"name":"orgNode","type":"bytes32","indexed":true,"internalType":"bytes32"},{"name":"admin","type":"address","indexed":true,"internalType":"address"},{"name":"label","type":"string","indexed":false,"internalType":"string"}],"anonymous":false},{"type":"event","name":"PartnersSet","inputs":[{"name":"orgNode","type":"bytes32","indexed":true,"internalType":"bytes32"},{"name":"partnersCsv","type":"string","indexed":false,"internalType":"string"}],"anonymous":false},{"type":"event","name":"ProofCommitmentSet","inputs":[{"name":"orgNode","type":"bytes32","indexed":true,"internalType":"bytes32"},{"name":"userLabel","type":"string","indexed":false,"internalType":"string"},{"name":"commitment","type":"bytes32","indexed":false,"internalType":"bytes32"}],"anonymous":false},{"type":"event","name":"TextChanged","inputs":[{"name":"node","type":"bytes32","indexed":true,"internalType":"bytes32"},{"name":"indexedKey","type":"string","indexed":true,"internalType":"string"},{"name":"key","type":"string","indexed":false,"internalType":"string"},{"name":"value","type":"string","indexed":false,"internalType":"string"}],"anonymous":false},{"type":"event","name":"UserRegistered","inputs":[{"name":"orgNode","type":"bytes32","indexed":true,"internalType":"bytes32"},{"name":"userLabel","type":"string","indexed":false,"internalType":"string"},{"name":"userAddr","type":"address","indexed":false,"internalType":"address"}],"anonymous":false},{"type":"event","name":"UserRevoked","inputs":[{"name":"orgNode","type":"bytes32","indexed":true,"internalType":"bytes32"},{"name":"userLabel","type":"string","indexed":false,"internalType":"string"}],"anonymous":false},{"type":"event","name":"UserUpdated","inputs":[{"name":"orgNode","type":"bytes32","indexed":true,"internalType":"bytes32"},{"name":"userLabel","type":"string","indexed":false,"internalType":"string"}],"anonymous":false},{"type":"error","name":"LabelMissingPrefix","inputs":[]},{"type":"error","name":"NotOrgAdmin","inputs":[]},{"type":"error","name":"NotUser","inputs":[]},{"type":"error","name":"OrgAlreadyRegistered","inputs":[]},{"type":"error","name":"OrgNotRegistered","inputs":[]},{"type":"error","name":"UnsupportedSelector","inputs":[]},{"type":"error","name":"UserAlreadyExists","inputs":[]},{"type":"error","name":"UserMissing","inputs":[]},{"type":"error","name":"WrapperNotApproved","inputs":[]}],"bytecode":{"object":"0x60a0346100a257601f61280438819003918201601f19168301916001600160401b038311848410176100a7578084926020946040528339810103126100a257516001600160a01b03811681036100a25760805260405161274690816100be82396080518181816106a0015281816107f6015281816108e001528181610b4601528181611178015281816114de015281816115c001528181611a210152611da50152f35b600080fd5b634e487b7160e01b600052604160045260246000fdfe60806040526004361015610013575b600080fd5b60003560e01c806301ffc9a71461017b57806307be6f9914610172578063158d0595146101695780633b3b57de1461016057806359d1d43c1461015757806378ce09981461014e5780639061b923146101455780639f8e3e0d1461013c578063a3e84beb14610133578063a8e5fbc01461012a578063baa9e41714610121578063bd35741914610118578063c2312b841461010f578063c7fb779414610106578063cc473be3146100fd578063cd544a7b146100f4578063d0aea43a146100eb5763d9ca69e4146100e357600080fd5b61000e610e2c565b5061000e610df1565b5061000e610dc4565b5061000e610d9a565b5061000e610d64565b5061000e610a8a565b5061000e610a6d565b5061000e61092d565b5061000e6108c9565b5061000e610868565b5061000e6107a2565b5061000e610746565b5061000e610640565b5061000e610611565b5061000e610599565b5061000e6104f3565b5061000e610401565b503461000e57602036600319011261000e5760043563ffffffff60e01b811680910361000e576020906301ffc9a760e01b81149081156101f1575b81156101e0575b81156101cf575b506040519015158152f35b631d9dabef60e11b149050386101c4565b631674750f60e21b811491506101bd565b639061b92360e01b811491506101b6565b90600182811c92168015610232575b602083101461021c57565b634e487b7160e01b600052602260045260246000fd5b91607f1691610211565b50634e487b7160e01b600052604160045260246000fd5b6001600160401b03811161026657604052565b61026e61023c565b604052565b604081019081106001600160401b0382111761026657604052565b90601f801991011681019081106001600160401b0382111761026657604052565b90604051918260008254926102c384610202565b90818452600194858116908160001461033257506001146102ef575b50506102ed9250038361028e565b565b9093915060005260209081600020936000915b81831061031a5750506102ed935082010138806102df565b85548884018501529485019487945091830191610302565b9150506102ed94506020925060ff191682840152151560051b82010138806102df565b919082519283825260005b848110610381575050826000602080949584010152601f8019910116010190565b602081830181015184830182015201610360565b94989796936103da60e097946103cc6001600160401b03956103e89560018060a01b03168a526101008060208c01528a0190610355565b9088820360408a0152610355565b908682036060880152610355565b97166080840152151560a0830152151560c08201520152565b503461000e57604036600319011261000e5760043560005260016020526040600020602435600052602052604060002060018060a01b0381541661049661044a600184016102af565b91610457600285016102af565b92610464600386016102af565b94600560048201549101549260405196879660ff8460481c16946001600160401b0360ff8660401c1695169389610395565b0390f35b9181601f8401121561000e578235916001600160401b03831161000e576020838186019501011161000e57565b60a435906001600160401b038216820361000e57565b60c435906001600160401b038216820361000e57565b503461000e5760c036600319011261000e576001600160401b0360243581811161000e5761052590369060040161049a565b60443583811161000e5761053d90369060040161049a565b60649291923585811161000e5761055890369060040161049a565b9160843596871161000e5761057461058897369060040161049a565b95909461057f6104c7565b97600435611573565b005b9081602091031261000e573590565b503461000e57602036600319011261000e5760206105b86004356119b3565b6040516001600160a01b039091168152f35b90604060031983011261000e5760043591602435906001600160401b03821161000e576105f99160040161049a565b9091565b90602061060e928181520190610355565b90565b503461000e5761049661062c610626366105ca565b9161190f565b604051918291602083526020830190610355565b503461000e5761064f366105ca565b90610678610674600161066c866000526000602052604060002090565b015460ff1690565b1590565b610734576040516331a9108f60e11b8152600481018490526001600160a01b036020826024817f000000000000000000000000000000000000000000000000000000000000000085165afa918215610727575b6000926106f7575b50339116036106e5576105889261177b565b6040516302655e8760e21b8152600490fd5b61071991925060203d8111610720575b610711818361028e565b810190610f5d565b90386106d3565b503d610707565b61072f610f72565b6106cb565b60405163382411b160e21b8152600490fd5b503461000e57604036600319011261000e576001600160401b0360043581811161000e5761077890369060040161049a565b60249291923591821161000e576104969261079a61062c93369060040161049a565b929091611b5f565b503461000e576107b1366105ca565b906107ce610674600161066c866000526000602052604060002090565b610734576040516331a9108f60e11b8152600481018490526001600160a01b036020826024817f000000000000000000000000000000000000000000000000000000000000000085165afa91821561085b575b60009261083b575b50339116036106e557610588926116e8565b61085491925060203d811161072057610711818361028e565b9038610829565b610863610f72565b610821565b503461000e57602036600319011261000e5760043560005260006020526108b2604060002060ff600161089a836102af565b92015416604051928392604084526040840190610355565b90151560208301520390f35b600091031261000e57565b503461000e57600036600319011261000e576040517f00000000000000000000000000000000000000000000000000000000000000006001600160a01b03168152602090f35b6001600160a01b0381160361000e57565b604435906102ed8261090f565b503461000e5760e036600319011261000e576001600160401b0360243581811161000e5761095f90369060040161049a565b9190610969610920565b60643583811161000e5761098190369060040161049a565b60849591953585811161000e5761099c90369060040161049a565b9160a43596871161000e57610496976109bc6109d098369060040161049a565b9690956109c76104dd565b9860043561112a565b6040519081529081906020820190565b604051906102ed82610273565b6020906001600160401b038111610a0a575b601f01601f19160190565b610a1261023c565b6109ff565b60405190602082018281106001600160401b03821117610a3b575b60405260008252565b610a4361023c565b610a32565b60405190610a5582610273565b60098252687a6b6d656d6f72792d60b81b6020830152565b503461000e57600036600319011261000e5761049661062c610a48565b503461000e5760208060031936011261000e57600480356001600160401b03811161000e57610abc903690830161049a565b9290610ad3610674610acc610a48565b8684612145565b610d5357610b08610ae5368684610f26565b8381519101206000805160206126f1833981519152600052602052604060002090565b92610b22600161066c866000526000602052604060002090565b610d4457604080516331a9108f60e11b815282810186815291946001600160a01b037f000000000000000000000000000000000000000000000000000000000000000081169491939192918490839081906020010381885afa918215610d37575b600092610d18575b5033911603610d0a57845163e985e9c560e01b8152338282019081523060208201528390829081906040010381875afa908115610cfd575b600091610cd0575b5015610cc257823b1561000e578451630c4b7b8560e11b81529081018681523060208201526104969787947f4c5a63cd35c079126be9db50d14235abb4ff5ec3bc89d1f1f2975fe42894e5ea94610c8b949293610c7e93919260009183919082908490829060400103925af18015610cb5575b610c9c575b50610c65610c4f6109e0565b91610c5b36868b610f26565b8352820160019052565b610c79866000526000602052604060002090565b610feb565b8551918291339683611119565b0390a3519081529081906020820190565b80610ca9610caf92610253565b806108be565b38610c43565b610cbd610f72565b610c3e565b845163199b032360e21b8152fd5b610cf09150833d8511610cf6575b610ce8818361028e565b810190610f7f565b38610bcb565b503d610cde565b610d05610f72565b610bc3565b84516302655e8760e21b8152fd5b610d30919250843d861161072057610711818361028e565b9038610b8b565b610d3f610f72565b610b83565b60405163554b4d3f60e11b8152fd5b604051630146d71960e21b81528390fd5b503461000e57602036600319011261000e5760043560005260036020526040806000206001815491015482519182526020820152f35b503461000e57600036600319011261000e5760206040516000805160206126f18339815191528152f35b503461000e57602036600319011261000e57600435600052600460205261049661062c60406000206102af565b503461000e57604036600319011261000e576004356000526002602052604060002060243560005260205261049661062c60406000206102af565b503461000e57606036600319011261000e576004356024356001600160401b03811161000e57610e6090369060040161049a565b60443591610e9c610e72368484610f26565b60208151910120610e8d866000526001602052604060002090565b90600052602052604060002090565b6004810154610eaf9060481c60ff161590565b610f14578054336001600160a01b0390911603610f0257837fda7e6a1b6730bbacf075fee24775a76704ee1ff76da61bd6b1aad82243764ac8946005610efd930155604051938493846118b6565b0390a2005b604051637aafae9760e01b8152600490fd5b6040516314f1b51b60e31b8152600490fd5b929192610f32826109ed565b91610f40604051938461028e565b82948184528183011161000e578281602093846000960137010152565b9081602091031261000e575161060e8161090f565b506040513d6000823e3d90fd5b9081602091031261000e5751801515810361000e5790565b90601f8111610fa557505050565b600091825260208220906020601f850160051c83019410610fe1575b601f0160051c01915b828110610fd657505050565b818155600101610fca565b9092508290610fc1565b9080519081516001600160401b0381116110eb575b6110148161100e8654610202565b86610f97565b6020928390601f8311600114611074579282611056936102ed979693600196600092611069575b5050600019600383901b1c191690851b1785555b0151151590565b91019060ff801983541691151516179055565b01519050388061103b565b90601f1983169161108a87600052602060002090565b9260005b8181106110d45750936102ed9796936001969387938361105698106110bb575b505050811b01855561104f565b015160001960f88460031b161c191690553880806110ae565b92938760018192878601518155019501930161108e565b6110f361023c565b611000565b908060209392818452848401376000828201840152601f01601f1916010190565b91602061060e9381815201916110f8565b99989796959493929190611150610674600161066c8e6000526000602052604060002090565b610734576040516331a9108f60e11b8152600481018c90526001600160a01b036020826024817f000000000000000000000000000000000000000000000000000000000000000085165afa9182156111dd575b6000926111bd575b50339116036106e55761060e9a61134a565b6111d691925060203d811161072057610711818361028e565b90386111ab565b6111e5610f72565b6111a3565b9092916001600160401b0381116112b2575b6112108161120a8454610202565b84610f97565b6000601f821160011461124a578192939460009261123f575b50508160011b916000199060031b1c1916179055565b013590503880611229565b601f1982169461125f84600052602060002090565b91805b87811061129a575083600195969710611280575b505050811b019055565b0135600019600384901b60f8161c19169055388080611276565b90926020600181928686013581550194019101611262565b6112ba61023c565b6111fc565b9081602091031261000e575190565b949695916112f6906001600160401b039460c09693885260e0602089015260e08801916110f8565b6001600160a01b0391821660408701529616606085015260006080850181905260a085015216910152565b9160209161133a919594956040855260408501916110f8565b6001600160a01b03909416910152565b989a999095929397919694611360368989610f26565b602081519101209b6113808d610e8d8d6000526001602052604060002090565b93600485019a6113958c5460ff9060481c1690565b611561578e610e8d8e6114567f213415f26d670758ea66f1e9d1a769ba1c10cd205288304664a1451caf8af8479f8f978f97906115219f918f6114d89f9e60209f61142a9561146b9f9161141b611424936114669f611412600398889060018060a01b03166bffffffffffffffffffffffff60a01b825416179055565b600187016111ea565b600284016111ea565b016111ea565b8054690100000000000000000069ff00ffffffffffffffff199091166001600160401b038c1617179055565b6000526002602052604060002090565b6111ea565b6114b76114818c8b600052602052604060002090565b9b61148a6109e0565b908b8252848201526114a68d6000526003602052604060002090565b906020600191805184550151910155565b6040516309306bd160e21b815292839182919030878b8b8f600488016112ce565b038160007f00000000000000000000000000000000000000000000000000000000000000006001600160a01b03165af18015611554575b611526575b5060405193849384611321565b0390a2565b6115469060203d811161154d575b61153e818361028e565b8101906112bf565b5038611514565b503d611534565b61155c610f72565b61150f565b6040516361a21cbf60e11b8152600490fd5b989796959493929190611598610674600161066c8d6000526000602052604060002090565b610734576040516331a9108f60e11b8152600481018b90526001600160a01b036020826024817f000000000000000000000000000000000000000000000000000000000000000085165afa918215611625575b600092611605575b50339116036106e5576102ed99611632565b61161e91925060203d811161072057610711818361028e565b90386115f3565b61162d610f72565b6115eb565b98939790969594919561164636888a610f26565b602081519101208a6000526001602052604060002090600052602052604060002093600485019460ff865460481c1615610f14576114246116d1986116b69661141b7f63a0646c92ed3f94d33d04c6b3f9555b11f42aa13194b0790179632cb91c929d9e600396600187016111ea565b906001600160401b03166001600160401b0319825416179055565b6115216040519283926020845260208401916110f8565b91906116f5368383610f26565b6020815191012083600052600160205260406000209060005260205260046040600020019182549260ff8460481c1615610f1457680100000000000000007fc94b16046d6f9988b7fce16e4e68e3e0f182fa5f4b72b4640d16ff67f6a658c09468ff000000000000000019161790556115216040519283926020845260208401916110f8565b909291816000526020936004855260406000206001600160401b0383116118a9575b6117b1836117ab8354610202565b83610f97565b600095601f841160011461181b5750827ffc456b67fe1a94943469ed3aad2eb03d64390834dd69c0800cba407300afc310949596600091611810575b508360011b906000198560031b1c19161790555b61152160405192839283611119565b9050820135386117ed565b601f1984169661183083600052602060002090565b9181905b898210611891575050847ffc456b67fe1a94943469ed3aad2eb03d64390834dd69c0800cba407300afc31096979810611877575b5050600183811b019055611801565b830135600019600386901b60f8161c191690553880611868565b80600184958294958901358155019401920190611834565b6118b161023c565b61179d565b9392916020916118ce916040875260408701916110f8565b930152565b90604051604081018181106001600160401b03821117611902575b604052602060018294805484520154910152565b61190a61023c565b6118ee565b909181600052600360205260406000206020604051604081018181106001600160401b038211176119a6575b6040526001835493848352015491829101528161198d57505081600052600060205260ff600160406000200154166119785750505061060e610a17565b61060e92611987913691610f26565b906121b5565b916119a09193509361060e943691610f26565b916122d9565b6119ae61023c565b61193b565b6119cf6119ca826000526003602052604060002090565b6118d3565b805180611a7d5750506119f1600161066c836000526000602052604060002090565b6119fb5750600090565b6040516331a9108f60e11b815260048101919091526001600160a01b03906020816024817f000000000000000000000000000000000000000000000000000000000000000086165afa60009181611a5d575b50611a59575050600090565b1690565b611a7691925060203d811161072057610711818361028e565b9038611a4d565b61060e9250611abd916020611a9f611ab0936000526001602052604060002090565b910151600052602052604060002090565b546001600160a01b031690565b6001600160a01b031690565b9060041161000e5790600490565b909291928360041161000e57831161000e57600401916003190190565b6001600160e01b03199035818116939260048110611b1157505050565b60040360031b82901b16169150565b919060408382031261000e578235926020810135906001600160401b03821161000e57019080601f8301121561000e5781602061060e93359101610f26565b929190611b7f611b6f8484611ac9565b6001600160e01b03199291611af4565b16631674750f60e21b8114611bfd57631d9dabef60e11b14611bad57604051631e8b844160e01b8152600490fd5b611bef93611bcd611bc58561060e96611bd296611ad7565b81019061058a565b611d12565b604080516001600160a01b03909216602083015290928391820190565b03601f19810183528261028e565b5092611bef93611c1f611c178561060e96611c2696611ad7565b810190611b20565b9290611c35565b604051928391602083016105fd565b929190836000526003602052611c4e60406000206118d3565b80519081611d00575050611c71600161066c866000526000602052604060002090565b611cf557611c80929350611e65565b91929180611cc7575b611cbe5750611ca7600161066c846000526000602052604060002090565b611cb557505061060e610a17565b61060e916121b5565b61060e926122d9565b50611cf06004611ce583610e8d876000526001602052604060002090565b015460481c60ff1690565b611c89565b505061060e916121b5565b6020015161060e9550925090506122d9565b9190611d2b6119ca846000526003602052604060002090565b805180611e42575050611d4d600161066c856000526000602052604060002090565b611e1e57611d5b9250611e65565b611e035750611d79600161066c836000526000602052604060002090565b611d835750600090565b6040516331a9108f60e11b8152600481019190915260208180602481015b03817f00000000000000000000000000000000000000000000000000000000000000006001600160a01b03165afa60009181611de3575b5061060e5750600090565b611dfc91925060203d811161072057610711818361028e565b9038611dd8565b611ab090610e8d61060e936000526001602052604060002090565b50506040516331a9108f60e11b815260048101919091526020818060248101611da1565b61060e9450611ab093506020919250611a9f906000526001602052604060002090565b9190611e718184611fec565b81949115611f7c57611e8490838361205b565b81939115611f6b57611e9790828461205b565b9190928315611f175790611eab929161205b565b5015611ebd5750600092508291829150565b611edf6000805160206126f18339815191529160008052602052604060002090565b03611f0c57611f05906000805160206126f1833981519152600052602052604060002090565b9190600190565b506000915081908190565b5050505090916000918280526020526000805160206126f18339815191526040832003611f6457611f5f906000805160206126f1833981519152600052602052604060002090565b918190565b5080918190565b505050509050600090600090600090565b5050509050600090600090600090565b50634e487b7160e01b600052603260045260246000fd5b50634e487b7160e01b600052601160045260246000fd5b9060018201809211611fc857565b6102ed611fa3565b6030019081603011611fc857565b6002019081600211611fc857565b811561205157803560f81c918260010180600111612044575b80931561203957508260011161000e57821161000e5761202f903690600019840190600101610f26565b6020815191012091565b939250505060009190565b61204c611fa3565b612005565b5050600090600090565b90808310156120db578282013560f81c92600181018082116120ce575b6001858301018091116120c1575b8094156120b5575061209790611fba565b9083821161000e57831161000e5761202f9136918085039101610f26565b94935050505060009190565b6120c9611fa3565b612086565b6120d6611fa3565b612078565b506000929050565b60019060001981146120f3570190565b6120fb611fa3565b0190565b60209080511561210d570190565b6120fb611f8c565b60219080516001101561210d570190565b90602091805182101561213857010190565b612140611f8c565b010190565b612150913691610f26565b9081518151116121ae57600090815b81518110156121a5576001600160f81b03198061217c8387612126565b5116906121898385612126565b51160361219e57612199906120e3565b61215f565b5050905090565b50505050600190565b5050600090565b90602081519101207fba139793d8cf620ddfe12fbd6425cf798e13f8fdc86dab8bcb835b69d3b7bb588114612282577f05acac8085eaf31957b40cdc62329bbf335568589e246a65dcf6f7f22c36030a811461224f577f9cc4de9862fea61ace64a402c1d9a8e1bf0e7dbd2d1628d1015b23b7ad0b1c551461223a575061060e610a17565b600052600060205261060e60406000206102af565b505060405161225d81610273565b60158152743d35b6b2b6b7b93cb0baba3437b934bd30ba34b7b760591b602082015290565b50600052600460205261060e60406000206102af565b604051906122a582610273565b600582526466616c736560d81b6020830152565b604051906122c682610273565b60048252637472756560e01b6020830152565b91906122f390610e8d846000526001602052604060002090565b60048101549160ff8360481c16156124bb5760208151910120917f59ce2b09273e2887e30faf86843b5a4362974610514cd1e56a5c369d338814df83146124ab577fc4f2b716e9a48afd0e0fefcd0faf402f084fa6055cc206df0753611a4730826c831461249b577f89740df66df1bb7ddb7261070ead3fa7516c9f71b239fb079d3f17b3a7b9cb88831461248b577f796e35822753f521059478b9001c9770a7910140407dcb50ab342414430dd9a28314612474577ff522efa668bb1e2b0a00ece51d95ace5102105004d9c703a02a8d57c6690c8b2831461245457507f35da8047630c726a7398a13a40cce257eabb68ecf2be6c396c1122272a6bbea3821461244457507f9cc4de9862fea61ace64a402c1d9a8e1bf0e7dbd2d1628d1015b23b7ad0b1c5514612428575061060e610a17565b61243f61060e916000526000602052604060002090565b6102af565b61060e9250600591500154612622565b60401c60ff1615925061246c9150505761060e6122b9565b61060e612298565b905061060e92506001600160401b0391501661254d565b5061060e925060039150016102af565b5061060e925060029150016102af565b5061060e925060019150016102af565b5050505061060e610a17565b60405190608082018281106001600160401b038211176124f3575b604052604282526060366020840137565b6124fb61023c565b6124e2565b9061250a826109ed565b612517604051918261028e565b8281528092612528601f19916109ed565b0190602036910137565b8015612540575b6000190190565b612548611fa3565b612539565b6001600160401b03808216156125ed57600092839282815b1694851561258057600a61257985926120e3565b9604612565565b909294509290928461259182612500565b935b169081156125e5576125a58691612532565b91600a906125d26125c26125bc8585850616611fd0565b60ff1690565b60f81b6001600160f81b03191690565b851a6125de8588612126565b5304612593565b509193505050565b50506040516125fb81610273565b60018152600360fc1b602082015290565b908160011b9180830460021490151715611fc857565b9061262b6124c7565b6030612636826120ff565b53607861264282612115565b5360005b6020811061265357509150565b80846126d1921a600f90818160041c1691601091828410156126e3575b6f181899199a1a9b1b9c1cb0b131b232b360811b9384901a6126a261269c6126978861260c565b611fde565b89612126565b5316908110156126d6575b1a6126cb6126c56126c06126978561260c565b611fba565b85612126565b536120e3565b612646565b6126de611f8c565b6126ad565b6126eb611f8c565b61267056fe93cdeb708b7545dc668eb9280176169d1c33cfd8ed6f04690a0bcc88a93fc4aea2646970667358221220daa899a7232a01bb1b5319faefd38c39e0126decb2fec9e34ddb533db7af8d8564736f6c63430008110033","linkReferences":{}},"methodIdentifiers":{"ETH_NODE()":"cc473be3","REQUIRED_PREFIX()":"bd357419","addr(bytes32)":"3b3b57de","nameWrapper()":"a8e5fbc0","orgPartners(bytes32)":"cd544a7b","orgs(bytes32)":"a3e84beb","registerOrg(string)":"c2312b84","registerUser(bytes32,string,address,string,string,string,uint64)":"baa9e417","resolve(bytes,bytes)":"9061b923","revokeUser(bytes32,string)":"9f8e3e0d","setPartners(bytes32,string)":"78ce0998","setProofCommitment(bytes32,string,bytes32)":"d9ca69e4","supportsInterface(bytes4)":"01ffc9a7","text(bytes32,string)":"59d1d43c","updateUser(bytes32,string,string,string,string,uint64)":"158d0595","userByNode(bytes32)":"c7fb7794","userLabels(bytes32,bytes32)":"d0aea43a","users(bytes32,bytes32)":"07be6f99"},"id":128}